{
  "contractName": "SimpleBank",
  "abi": [
    {
      "anonymous": false,
      "inputs": [
        {
          "indexed": true,
          "internalType": "address",
          "name": "accountAddress",
          "type": "address"
        },
        {
          "indexed": false,
          "internalType": "uint256",
          "name": "amount",
          "type": "uint256"
        }
      ],
      "name": "LogDepositMade",
      "type": "event"
    },
    {
      "anonymous": false,
      "inputs": [
        {
          "indexed": true,
          "internalType": "address",
          "name": "accountAddress",
          "type": "address"
        }
      ],
      "name": "LogEnrolled",
      "type": "event"
    },
    {
      "anonymous": false,
      "inputs": [
        {
          "indexed": true,
          "internalType": "address",
          "name": "accountAddress",
          "type": "address"
        },
        {
          "indexed": false,
          "internalType": "uint256",
          "name": "withdrawAmount",
          "type": "uint256"
        },
        {
          "indexed": false,
          "internalType": "uint256",
          "name": "newBalance",
          "type": "uint256"
        }
      ],
      "name": "LogWithdrawal",
      "type": "event"
    },
    {
      "constant": true,
      "inputs": [
        {
          "internalType": "address",
          "name": "",
          "type": "address"
        }
      ],
      "name": "enrolled",
      "outputs": [
        {
          "internalType": "bool",
          "name": "",
          "type": "bool"
        }
      ],
      "payable": false,
      "stateMutability": "view",
      "type": "function"
    },
    {
      "constant": true,
      "inputs": [],
      "name": "owner",
      "outputs": [
        {
          "internalType": "address",
          "name": "",
          "type": "address"
        }
      ],
      "payable": false,
      "stateMutability": "view",
      "type": "function"
    },
    {
      "constant": false,
      "inputs": [],
      "name": "Fallback",
      "outputs": [],
      "payable": true,
      "stateMutability": "payable",
      "type": "function"
    },
    {
      "constant": true,
      "inputs": [],
      "name": "getBalance",
      "outputs": [
        {
          "internalType": "uint256",
          "name": "",
          "type": "uint256"
        }
      ],
      "payable": false,
      "stateMutability": "view",
      "type": "function"
    },
    {
      "constant": false,
      "inputs": [],
      "name": "enroll",
      "outputs": [
        {
          "internalType": "bool",
          "name": "",
          "type": "bool"
        }
      ],
      "payable": false,
      "stateMutability": "nonpayable",
      "type": "function"
    },
    {
      "constant": false,
      "inputs": [],
      "name": "deposit",
      "outputs": [
        {
          "internalType": "uint256",
          "name": "",
          "type": "uint256"
        }
      ],
      "payable": true,
      "stateMutability": "payable",
      "type": "function"
    },
    {
      "constant": false,
      "inputs": [
        {
          "internalType": "uint256",
          "name": "withdrawAmount",
          "type": "uint256"
        }
      ],
      "name": "withdraw",
      "outputs": [
        {
          "internalType": "uint256",
          "name": "",
          "type": "uint256"
        }
      ],
      "payable": false,
      "stateMutability": "nonpayable",
      "type": "function"
    }
  ],
  "bytecode": "0x608060405233600260006101000a81548173ffffffffffffffffffffffffffffffffffffffff021916908373ffffffffffffffffffffffffffffffffffffffff16021790555034801561005157600080fd5b506107c1806100616000396000f3fe6080604052600436106100705760003560e01c806352b4643c1161004e57806352b4643c146101585780638da5cb5b14610162578063d0e30db0146101b9578063e65f2a7e146101d757610070565b806310eb0e0e1461007557806312065fe0146100de5780632e1a7d4d14610109575b600080fd5b34801561008157600080fd5b506100c46004803603602081101561009857600080fd5b81019080803573ffffffffffffffffffffffffffffffffffffffff169060200190929190505050610206565b604051808215151515815260200191505060405180910390f35b3480156100ea57600080fd5b506100f3610226565b6040518082815260200191505060405180910390f35b34801561011557600080fd5b506101426004803603602081101561012c57600080fd5b810190808035906020019092919050505061026c565b6040518082815260200191505060405180910390f35b6101606104c6565b005b34801561016e57600080fd5b506101776104c8565b604051808273ffffffffffffffffffffffffffffffffffffffff1673ffffffffffffffffffffffffffffffffffffffff16815260200191505060405180910390f35b6101c16104ee565b6040518082815260200191505060405180910390f35b3480156101e357600080fd5b506101ec61065b565b604051808215151515815260200191505060405180910390f35b60016020528060005260406000206000915054906101000a900460ff1681565b60008060003373ffffffffffffffffffffffffffffffffffffffff1673ffffffffffffffffffffffffffffffffffffffff16815260200190815260200160002054905090565b6000816000803373ffffffffffffffffffffffffffffffffffffffff1673ffffffffffffffffffffffffffffffffffffffff168152602001908152602001600020541015610322576040517f08c379a00000000000000000000000000000000000000000000000000000000081526004018080602001828103825260148152602001807f496e73756666696369656e742062616c616e636500000000000000000000000081525060200191505060405180910390fd5b816000803373ffffffffffffffffffffffffffffffffffffffff1673ffffffffffffffffffffffffffffffffffffffff16815260200190815260200160002054036000803373ffffffffffffffffffffffffffffffffffffffff1673ffffffffffffffffffffffffffffffffffffffff168152602001908152602001600020819055503373ffffffffffffffffffffffffffffffffffffffff166108fc839081150290604051600060405180830381858888f193505050501580156103eb573d6000803e3d6000fd5b503373ffffffffffffffffffffffffffffffffffffffff167ff9226daf630542048a23086c6af599511aac100ec8f532793cc9697d061bed7e836000803373ffffffffffffffffffffffffffffffffffffffff1673ffffffffffffffffffffffffffffffffffffffff16815260200190815260200160002054604051808381526020018281526020019250505060405180910390a26000803373ffffffffffffffffffffffffffffffffffffffff1673ffffffffffffffffffffffffffffffffffffffff168152602001908152602001600020549050919050565b565b600260009054906101000a900473ffffffffffffffffffffffffffffffffffffffff1681565b6000600160003373ffffffffffffffffffffffffffffffffffffffff1673ffffffffffffffffffffffffffffffffffffffff16815260200190815260200160002060009054906101000a900460ff1661054657600080fd5b346000803373ffffffffffffffffffffffffffffffffffffffff1673ffffffffffffffffffffffffffffffffffffffff16815260200190815260200160002054016000803373ffffffffffffffffffffffffffffffffffffffff1673ffffffffffffffffffffffffffffffffffffffff168152602001908152602001600020819055503373ffffffffffffffffffffffffffffffffffffffff167fa8126f7572bb1fdeae5b5aa9ec126438b91f658a07873f009d041ae690f3a193346040518082815260200191505060405180910390a26000803373ffffffffffffffffffffffffffffffffffffffff1673ffffffffffffffffffffffffffffffffffffffff16815260200190815260200160002054905090565b6000806000803373ffffffffffffffffffffffffffffffffffffffff1673ffffffffffffffffffffffffffffffffffffffff1681526020019081526020016000208190555060018060003373ffffffffffffffffffffffffffffffffffffffff1673ffffffffffffffffffffffffffffffffffffffff16815260200190815260200160002060006101000a81548160ff0219169083151502179055503373ffffffffffffffffffffffffffffffffffffffff167f990c442e6adb818b8fa7db3cf1023decd07f7b66e5306928c7ed527d974192bb60405160405180910390a2600160003373ffffffffffffffffffffffffffffffffffffffff1673ffffffffffffffffffffffffffffffffffffffff16815260200190815260200160002060009054906101000a900460ff1690509056fea265627a7a72315820a935ccc8e8e241145484190ecfe0c8f3e4e0928a1b293cc089714cd583c931bc64736f6c63430005100032",
  "source": "/*\n * This exercise has been updated to use Solidity version 0.8.5\n * See the latest Solidity updates at\n * https://solidity.readthedocs.io/en/latest/080-breaking-changes.html\n */\n // SPDX-License-Identifier: MIT\n pragma solidity >=0.5.16 <0.9.0;\n\n contract SimpleBank {\n     /* State variables\n      */\n\n     // Hint: We want to protect our users balance from other contracts\n     mapping(address => uint256) private balances;\n\n     // Fill in the visibility keyword\n     // Hint: We want to create a getter function and allow contracts to be able\n     //       to see if a user is enrolled.\n     mapping(address => bool) public enrolled;\n\n     // Let's make sure everyone knows who owns the bank, yes, fill in the\n     // appropriate visilibility keyword\n     address public owner = msg.sender;\n\n     /* Events - publicize actions to external listeners\n      */\n\n     // Add an argument for this event, an accountAddress\n     event LogEnrolled(address indexed accountAddress);\n\n     // Add 2 arguments for this event, an accountAddress and an amount\n     event LogDepositMade(address indexed accountAddress, uint256 amount);\n\n     // Create an event called LogWithdrawal\n     // Hint: it should take 3 arguments: an accountAddress, withdrawAmount and a newBalance\n     event LogWithdrawal(\n         address indexed accountAddress,\n         uint256 withdrawAmount,\n         uint256 newBalance\n     );\n\n     /* Functions\n      */\n\n     // Fallback function - Called if other functions don't match call or\n     // sent ether without data\n     // Typically, called when invalid data is sent\n     // Added so ether sent to this contract is reverted if the contract fails\n     // otherwise, the sender's money is transferred to contract\n     function Fallback() external payable {}\n\n     /// @notice Get balance\n     /// @return The balance of the user\n     function getBalance() public view returns (uint256) {\n         // 1. A SPECIAL KEYWORD prevents function from editing state variables;\n         //    allows function to run locally/off blockchain\n         // 2. Get the balance of the sender of this transaction\n         return balances[msg.sender];\n     }\n\n     /// @notice Enroll a customer with the bank\n     /// @return The users enrolled status\n     // Emit the appropriate event\n     function enroll() public returns (bool) {\n         // 1. enroll of the sender of this transaction\n         balances[msg.sender] = 0;\n         enrolled[msg.sender] = true;\n         emit LogEnrolled(msg.sender);\n         return enrolled[msg.sender];\n     }\n\n     // function enrolled() public returns (bool){\n     //   return enrolled[msg.sender];\n     // }\n     /// @notice Deposit ether into bank\n     /// @return The balance of the user after the deposit is made\n     function deposit() public payable returns (uint256) {\n         require(enrolled[msg.sender]);\n         balances[msg.sender] = balances[msg.sender] + msg.value;\n         emit LogDepositMade(msg.sender, msg.value);\n         return balances[msg.sender];\n         // 1. Add the appropriate keyword so that this function can receive ether\n\n         // 2. Users should be enrolled before they can make deposits\n\n         // 3. Add the amount to the user's balance. Hint: the amount can be\n         //    accessed from of the global variable `msg`\n\n         // 4. Emit the appropriate event associated with this function\n\n         // 5. return the balance of sndr of this transaction\n     }\n\n     /// @notice Withdraw ether from bank\n     /// @dev This does not return any excess ether sent to it\n     /// @param withdrawAmount amount you want to withdraw\n     /// @return The balance remaining for the user\n     function withdraw(uint256 withdrawAmount) public returns (uint256) {\n         require(balances[msg.sender] >= withdrawAmount, \"Insufficient balance\");\n         balances[msg.sender] = balances[msg.sender] - withdrawAmount;\n         msg.sender.transfer(withdrawAmount);\n         emit LogWithdrawal(msg.sender, withdrawAmount, balances[msg.sender]);\n         return balances[msg.sender];\n         // If the sender's balance is at least the amount they want to withdraw,\n         // Subtract the amount from the sender's balance, and try to send that amount of ether\n         // to the user attempting to withdraw.\n         // return the user's balance.\n\n         // 1. Use a require expression to guard/ensure sender has enough funds\n\n         // 2. Transfer Eth to the sender and decrement the withdrawal amount from\n         //    sender's balance\n\n         // 3. Emit the appropriate event for this message\n     }\n }\n",
  "sourcePath": "/Users/rafaelandara/randara/simple-bank-exercise-randara/contracts/SimpleBank.sol",
  "compiler": {
    "name": "solc",
    "version": "0.5.16+commit.9c3226ce.Emscripten.clang"
  },
  "schemaVersion": "3.4.4",
  "updatedAt": "2022-01-15T02:16:08.080Z",
  "devdoc": {
    "methods": {
      "deposit()": {
        "return": "The balance of the user after the deposit is made"
      },
      "enroll()": {
        "return": "The users enrolled status"
      },
      "getBalance()": {
        "return": "The balance of the user"
      },
      "withdraw(uint256)": {
        "details": "This does not return any excess ether sent to it",
        "params": {
          "withdrawAmount": "amount you want to withdraw"
        },
        "return": "The balance remaining for the user"
      }
    }
  },
  "userdoc": {
    "methods": {
      "deposit()": {
        "notice": "Deposit ether into bank"
      },
      "enroll()": {
        "notice": "Enroll a customer with the bank"
      },
      "getBalance()": {
        "notice": "Get balance"
      },
      "withdraw(uint256)": {
        "notice": "Withdraw ether from bank"
      }
    }
  }
}